{
  "contractName": "ForceSend",
  "abi": [
    {
      "constant": false,
      "inputs": [
        {
          "internalType": "address payable",
          "name": "victim",
          "type": "address"
        }
      ],
      "name": "go",
      "outputs": [],
      "payable": true,
      "stateMutability": "payable",
      "type": "function"
    }
  ],
  "bytecode": "0x6080604052348015600f57600080fd5b5060a18061001e6000396000f3fe608060405260043610601c5760003560e01c80633434e749146021575b600080fd5b605160048036036020811015603557600080fd5b503573ffffffffffffffffffffffffffffffffffffffff166053565b005b8073ffffffffffffffffffffffffffffffffffffffff16fffea265627a7a723158203e5efbfa1c9a10df4bba956edac70b20a11a16cba60e6c7e11680ccb26b8c35b64736f6c634300050c0032",
  "source": "pragma solidity ^0.5.12;\ncontract ForceSend {\n    function go(address payable victim) external payable {\n        selfdestruct(victim);\n    }\n}",
  "sourcePath": "/home/gab/storage/git/discordBot/contracts/ForceSend.sol",
  "compiler": {
    "name": "solc",
    "version": "0.5.12+commit.7709ece9.Emscripten.clang"
  },
  "schemaVersion": "3.0.23",
  "updatedAt": "2020-02-23T05:08:05.741Z",
  "networkType": "ethereum",
  "devdoc": {
    "methods": {}
  },
  "userdoc": {
    "methods": {}
  }
}